:1003BE00D7AACBD93A333030722F6D696E00D7AAD7
:1003CE00CBD93A323730722F6D696E00D7AACBD99E
:1003DE003A323430722F6D696E00D7AACBD93A32C9
:1003EE003130722F6D696E00D7AACBD93A313830C1
:1003FE00722F6D696E00D7AACBD93A313530722F74
:10040E006D696E00D7AACBD93A313230722F6D6931
:10041E006E00D7AACBD93A3930722F6D696E00D7DC
:10042E00AACBD93A3630722F6D696E00D7AACBD9C6
:10043E003A3330722F6D696E00B7BDCFF23A2B0092
:10044E00B7BDCFF23A2D00D7AABDC73A2B30302018
:10045E0000D7AABDC73A302E3520C8A600D7AABDF0
:10046E00C73A312E3020C8A600D7AABDC73A312EC2
:10047E003520C8A600D7AABDC73A322E3020C8A64E
:10048E0000D7AABDC73A322E3520C8A600D7AABDBE
:10049E00C73A332E3020C8A600D7AABDC73A332E8E
:1004AE003520C8A600D7AABDC73A342E3020C8A61C
:1004BE0000D7AABDC73A342E3520C8A600D7AABD8C
:1004CE00C73A352E3020C8A600D7AABDC73A352E5A
:1004DE003520C8A600D7AABDC73A362E3020C8A6EA
:1004EE0000D7AABDC73A362E3520C8A600D7AABD5A
:1004FE00C73A372E3020C8A600D7AABDC73A372E26
:10050E003520C8A600D7AABDC73A382E3020C8A6B7
:10051E0000D7AABDC73A382E3520C8A600D7AABD27
:10052E00C73A392E3020C8A600D7AABDC73A392EF1
:10053E003520C8A600D7AABDC73A31302E30C8A67E
:10054E000077726F6E6720696E70757400D7AABDE2
:10055E00C73A302E35C8A600D7AACBD93A33307257
:0C056E002F6D696E00B7BDCFF23A2B0074
:100DA200020F000A02080001020A000002110000FC
:040CF4007F057E00FA
:0A0CF800EF1FAC0670011E4C6012E5
:100D0200E4F529E529C394FA50EC00000000052916
:020D120080F16E
:010D140022BC
:10000E00C2B5D2B6D2B400000000E580339201C270
:03001E00B4A20188
:0100210022BC
:100D350012000E40FBC2B5C2B6C2B400008F8000DF
:0C0D4500000000D2B400000000C2B42284
:100D510012000E40FBD2B5C2B6C2B48F80000000B3
:0A0D610000D2B400000000C2B4226A
:100CCE00D2B77F34120D35120CF47F30120D35125F
:100CDE000CF47F0C120D35120CF47F01120D357FC2
:060CEE00057E00020CF877
:100D7F00AD071FED600BE4FEEEC3940D50F20E8035
:010D8F00F76C
:010D90002240
:100D1500EF70047F808013BF01047F90800CBF02B9
:100D2500047F888005BF03027F98EF2DFF020D35F4
:100D9100D3EF9400EE94004007EF1F70F31E80F034
:010DA100222F
:040C1D007F0A7E00CC
:100C2100E4FDFCC3ED9FEC9E5021E4FBFA90000033
:100C3100A3E5826421458370F70BBB00010AEB64D5
:0B0C41000A4A70E90DBD00010C80D8CC
:010C4C002285
:080DC0007F147EF8DEFEDFFA6D
:010DC8002208
:100B9B00EE706DEF14B40A005066900BB375F00352
:100BAB00A4C58325F0C58373020C07020C01020B4D
:100BBB00FB020BF5020BEF020BE9020BE3020BDD61
:100BCB00020BD7020BD17C007DD280347C007D6977
:100BDB00802E7C007D4680287C007D3380227C002B
:100BEB007D2A801C7C007D2480167C007D2080105B
:100BFB007C007D1A800A7C007D1680047C007D14AD
:100C0B00D292AF05AE04120D91C292AF05AE0402A3
:020C1B000D9139
:060CA7008B298A2A892B2B
:100CAD00AF05E4FD120D15E4FEAB29AA2AA92B8E82
:100CBD0082758300120383FF6006120D510E80E9C9
:010CCD002204
:100C4D007F0A7E00120CF8C2A6C2A7120CCE7BFF43
:100C5D007A05795BE4FDFC120CA77BFF7A057966BA
:100C6D007D01120CA77BFF7A0579737D02020CA71B
:100A7B00E50F6003020B0EE51014B40A00400302ED
:100A8B000B0E900A9B75F003A4C58325F0C58373E9
:100A9B00020AB9020AC1020AC9020AD1020AD90220
:100AAB000AE1020AE9020AF1020AF9020B017BFFD1
:100ABB007A0379BE80467BFF7A0379CC803E7BFF3D
:100ACB007A0379DA80367BFF7A0379E8802E7BFF15
:100ADB007A0379F680267BFF7A047904801E7BFFEC
:100AEB007A04791280167BFF7A047920800E7BFFC3
:100AFB007A04792D80067BFF7A04793A7D017C009C
:040B0B00120CA722FF
:0D0DB30075890175A882758CEEE4F58A2221
:03000B00020C7D67
:100C7D00C0E0C0D0050BE50B7002050A758CEE7552
:100C8D008A00D3E50B9512E50A95114008C29175BE
:0A0C9D000A00750B00D0D0D0E03241
:100D6B00759850E4F587438920758DFD758BFDD201
:040D7B008ED2AC2246
:0300230002098C43
:10098C00C0E0C0F0C083C082C0D075D000C000C031
:10099C0001C002C003C004C005C006C007C2AFC27C
:1009AC00ACC29885990DE50D24BE602F14604A14D5
:1009BC006061146079147003020A5A240560030202
:1009CC000A5C0510E5107002050FD3940AE50F942C
:1009DC00004021750F0075100A8019E51015107074
:1009EC0002150FC3E5109401E50F94005006750F26
:1009FC0000751001120A7B8057B2907BFF30900675
:100A0C007A04794780047A04794E7D027C00120CBA
:100A1C00A7803D0509E50970020508D394C8E508CF
:100A2C006480948040237508007509C8801BE50913
:100A3C00150970021508D3E5099400E50864809443
:100A4C0080500675080075090012087B8002B2916F
:100A5C00D2ACD2AFD007D006D005D004D003D00290
:0F0A6C00D001D000D0D0D082D083D0F0D0E032F3
:10057A00E4F528F527F526F525C291D290C292C254
:10058A00B7120C4D120DB3120D6BD2AF1207298F91
:10059A0024E524B40118B2907BFF3090067A0479DE
:1005AA004780047A04794E7D027C00120CA7E52468
:1005BA00B4041A0510E5107002050FD3940AE50F6A
:1005CA0094004006750F0075100A120A7BE524B4E0
:1005DA00031CE51015107002150FC3E5109401E510
:1005EA000F94005006750F00751001120A7BE5245E
:1005FA00B4051C0509E50970020508D394C8E50885
:10060A006480948040067508007509C812087BE565
:10061A0024B4061DE509150970021508D3E50994E5
:10062A0000E508648094805005E4F508F50912088D
:10063A007BE524B40A2174142509F509E43508F583
:10064A0008D3E50994C8E5086480948040067508D3
:10065A00007509C812087BE524B40B2174EC25093E
:10066A00F50974FF3508F508D3E5099400E508642F
:10067A008094805005E4F508F50912087BE524B456
:10068A000202B291E5094508606DD28CAC0FAD103B
:10069A00E41202C9E4FBFAF9783F12011EA804A980
:1006AA0005AA06AB07E4FFFE7DB07C40120029C014
:1006BA0004C005C006C007AC08AD09EC1202C9E4C3
:1006CA00FBFAF9783F12011ED003D002D001D00004
:1006DA001202278F288E278D268C25E4FBFAF978BB
:1006EA003F120227E4FBFA79C8784212011E12036C
:1006FA00028E118F128002C28C209103020594D2BD
:10070A00AFAF10AE0F120B9B1207298F24E524B44A
:0F071A000209B291C28CE4F50AF50BC2AF80DA86
:10072900750E107580FE85800C530CF0E50C64F095
:100739006044120C1D85800C530CF0E50C64F060CC
:10074900EB85800CE50C2482601B24C0601224E038
:10075900600924F07012750E01800D750E02800873
:10076900750E038003750E0AE50C64F060CD858073
:100779000C530CF080F27580FD85800C530CF0E56C
:100789000C64F06044120C1D85800C530CF0E50CD0
:1007990064F060EB85800CE50C2483601B24C06049
:1007A9001224E0600924F07012750E04800D750E94
:1007B900058008750E068003750E0BE50C64F06064
:1007C900CD85800C530CF080F27580FB85800C532D
:1007D9000CF0E50C64F06044120C1D85800C530C80
:1007E900F0E50C64F060EB85800CE50C2485601B5A
:1007F90024C0601224E0600924F07012750E07808D
:100809000D750E088008750E098003750E0CE50C30
:1008190064F060CD85800C530CF080F27580F7850B
:10082900800C530CF0E50C64F06044120C1D8580BB
:100839000C530CF0E50C64F060EB85800CE50C249E
:1008490089601B24C0601224E0600924F0701275CD
:100859000E0E800DE4F50E8008750E0F8003750EDF
:100869000DE50C64F060CD85800C530CF080F2AF7F
:020879000E224D
:10087B00E508600302097FE509B41500400302098E
:10088B007F900893F82828730208D20208DB02082D
:10089B00E40208ED0208F60208FF02090702090F3D
:1008AB0002091702091F02092702092F0209370241
:1008BB00093F02094702094F02095702095F020962
:1008CB006702096F0209777BFF7A04795502098564
:1008DB007BFF7A04795F0209857BFF7A04796B02CF
:1008EB0009857BFF7A0479770209857BFF7A047986
:1008FB00830209857BFF7A04798F807E7BFF7A04E4
:10090B00799B80767BFF7A0479A7806E7BFF7A04D4
:10091B0079B380667BFF7A0479BF805E7BFF7A04B4
:10092B0079CB80567BFF7A0479D7804E7BFF7A0494
:10093B0079E380467BFF7A0479EF803E7BFF7A0474
:10094B0079FB80367BFF7A057907802E7BFF7A0552
:10095B00791380267BFF7A05791F801E7BFF7A0532
:10096B00792B80167BFF7A057937800E7BFF7A0512
:10097B00794380067BFF7A05794FE4FDFC120CA7C7
:01098B002249
:1000260002036EE86480F8E933E83360110460F097
:10003600ED33EC337009E8FCE9FDEAFEEBFF220440
:1000460060DED3EB9FEA9EE99DE8C2E78CF0C2F73B
:1000560095F0400CE8CCF8E9CDF9EACEFAEBCFFB07
:1000660012033985D0F05804700320D5B3E8047024
:10007600075002B2D502037892D5EC0460F7E4CCBF
:10008600C0E0C398F8603B94186008400DD0E0FBD0
:10009600020350E4FBFAC9FC8028E830E406E4C910
:1000A600FBE4CAFCE830E305E4C9CACBFCE8540724
:1000B6006010F8C3E913F9EA13FAEB13FBEC13FC2F
:1000C600D8F130F52FC3E49CFCEF9BFFEE9AFEEDD2
:1000D60099FDD0E0FBEF4E4D4C701222DB0302037C
:1000E60075EC2CFCEF33FFEE33FEED33FDED30E720
:1000F600EB020350EF2BFFEE3AFEED39FDD0E0FBAD
:1001060050130BBB0003020378ED13FDEE13FEEF55
:0801160013FFEC13FC0203507F
:10011E00EC4D6011E8497017ED33EC3304600DE4DB
:10012E00FCFFFEFD22E933E8330470F802036E1281
:10013E00033958046009E4CC248150062850090282
:10014E000378284003020375C0E0EB4A7044B9807F
:10015E0006D0E0FB020364EF4E701CBD8008EBFF7F
:10016E00EAFEE9FD80EBE98DF0A4FEE5F002020760
:10017E00E9CDF9EAFEEBFFEF89F0A4FCE5F0CE89BC
:10018E00F0A42EFFE435F0CD89F0A42DFEE435F079
:10019E008067EF4E7005BD80D780C3EF8BF0A4ACA7
:1001AE00F0EE8BF0A42CFCE435F0F8EF8AF0A42CE2
:1001BE00E5F038FCE433CB8DF0A42CFCE5F03BF8F5
:1001CE00EE8AF0A42CFCE5F038F8E433CF89F0A4E5
:1001DE002CFCE5F038CF3400CE89F0A42FFFE5F0EB
:1001EE003EFEE433C98DF0A42EFEE5F039CD8AF043
:1001FE00A42FFFE5F03EFEE43DFD33D0E0FB5007BB
:10020E000BBB000F020378EC2CFCEF33FFEE33FE3A
:06021E00ED33FD02035068
:10022400020378EC5D046005E85904700302036E70
:10023400120339580460F6EC4860F2EC7004FDFED9
:10024400FF22C860DB2481C85009C39860025006AD
:100254000203759850CAF582E9294B4A7005AB82AE
:1002640002036475F0007C1A7880C3EF9BEE9AED6C
:1002740099400DC3EF9BFFEE9AFEED99FDE842F025
:10028400DC23ACF0D0E0FFD0E0FED0E0FDAB822078
:10029400E7101BEB60BAEC2CFCEF33FFEE33FEED02
:1002A40033FD020350E803F830E705C0F075F000B1
:1002B400EF2FFFEE33FEED33FD40B830E7C280AAE6
:1002C40075F020800E75F010800575F0087D007EB5
:1002D400007F003392D530D5031203B0EC334010C5
:1002E400EF33FFEE33FEED33FDEC33FCD5F0ED22BE
:0E02F400E5F0247EA2D513CC92E7CDCEFF22FA
:10030200EDD2E7CD33EC3392D524814006E4FFFEF3
:10031200FDFC22FCE4CFCECDCC24E0501174FF8052
:10032200EDC3CC13CCCD13CDCE13CECF13CF0470EF
:07033200F030D5DE0203B03C
:10033900E9D2E7C933E833F892D5EDD2E7CD33EC0A
:0703490033FC5002B2D52283
:10035000EC30E7100FBF000C0EBE00080DBD00040E
:100360000BEB6014A2D5EB13FCED92E7FD2274FFBA
:10037000FCFDFEFF22E480F8A2D574FF13FC7D8013
:03038000E480EF27
:03000000020B0FE1
:0C0B0F00787FE4F6D8FD75812B020B56B0
:10038300BB010CE58229F582E5833AF583E022502F
:1003930006E92582F8E622BBFE06E92582F8E22279
:0D03A300E58229F582E5833AF583E4932293
:0E03B000C3E49FFFE49EFEE49DFDE49CFC225E
:100B1B0002057AE493A3F8E493A34003F68001F271
:100B2B0008DFF48029E493A3F85407240CC8C333DB
:100B3B00C4540F4420C8834004F456800146F6DFAA
:100B4B00E4800B0102040810204080900DA2E47E8B
:100B5B00019360BCA3FF543F30E509541FFEE4939F
:100B6B00A360010ECF54C025E060A840B8E493A366
:100B7B00FAE493A3F8E493A3C8C582C8CAC583CA91
:100B8B00F0A3C8C582C8CAC583CADFE9DEE780BE49
:010DB2000040
:00000001FF
